:020000040800F2
:10000000E80C002045010008AD110008C50E0008ED
:10001000A911000875050008A120000800000000D3
:10002000000000000000000000000000551700085C
:100030007107000800000000291600086918000870
:100040005F0100085F0100085F0100085F01000810
:100050005F0100085F0100085F0100085F01000800
:100060005F0100085F0100085F0100085F010008F0
:100070005F0100085F0100085F0100085F010008E0
:100080005F0100085F0100085F0100085F010008D0
:100090005F0100085F0100085F0100085F010008C0
:1000A0005F0100085F0100085F0100085F010008B0
:1000B0005F0100085F0100085F0100085F010008A0
:1000C0005F0100085F0100085F0100085F01000890
:1000D0005F0100085F010008ED1A00089D1C000880
:1000E0005F0100085F0100085F0100085F01000870
:1000F0005F0100085F0100085F0100085F01000860
:100100005F0100085F010008091900085F0100088D
:10011000811A00085F0100085F0100085F01000804
:100120005F0100085F0100085F0100085F0100082F
:10013000DFF80CD000F0C6F900480047112600088F
:10014000E80C00200648804706480047FEE7FEE727
:10015000FEE7FEE7FEE7FEE7FEE7FEE7FEE7FEE777
:10016000A918000831010008D2B201E000F8012B03
:10017000491EFBD270470022F6E710B513460A4627
:1001800004461946FFF7F0FF204610BD421E12F844
:10019000013F002BFBD111F8013B02F8013B002B82
:1001A000F9D1704730B505462A460B4612F8010BC7
:1001B00013F8014B08B1A042F8D01CB1002802D0BE
:1001C0006D1CF1E7284630BD421C10F8011B0029C8
:1001D000FBD1801A7047034611F8012B00F8012B60
:1001E000002AF9D1184670472DE9F04D81EA030441
:1001F00004F0004B21F0004514464FF0000A23F0B4
:10020000004150EA050220D054EA01021DD0C5F396
:100210000A570246C5F31303C1F31300C1F30A568C
:1002200040F4801543F48013A7EB0608101BD64654
:1002300008F2FD3873EB050002D308F1010801E074
:1002400092185B41B8F1000F03DA00200146BDE8C7
:10025000F08D00204FF48011064684460EE0171BF7
:1002600073EB050705D3121B63EB050306434CEA4A
:10027000010C49084FEA300092185B4150EA01072F
:10028000EDD152EA030012D082EA040083EA0501AC
:10029000084305D0101BAB4106D20122002306E023
:1002A00000224FF0004302E06FF0010253101AEBFE
:1002B00006004CEB085110EB0A0041EB0B01BDE8C6
:1002C000F04D00F0A3B80EB540F233410291002189
:1002D000CDE900110A460B4600F0A5F803B000BDB9
:1002E00000F0004220F00040C10DC0F3160040F4C1
:1002F00000007F2901DA00207047962903DCC1F154
:100300009601C84001E096398840002AF4D0404266
:10031000704720F00040C10DC0F3160040F400000B
:100320007F2901DA00207047962903DCC1F196018C
:10033000C840704796398840704701F0004330B498
:1003400021F0004150EA010206D00A0DA2F56072C8
:10035000C1F31301002A02DC30BC00207047440FB7
:1003600044EAC104C100E01830BC00EBC25000F008
:1003700016B830B50B46014600202022012409E0C2
:1003800021FA02F59D4205D303FA02F5491B04FA4E
:1003900002F52844151EA2F10102F1DC30BD00294E
:1003A000A8BF7047401C490008BF20F001007047FB
:1003B00010B4B0FA80FC00FA0CF050EA010404BF5B
:1003C00010BC704749B1CCF1200421FA04F411FAB1
:1003D0000CF118BF012121430843A3EB0C01CB1DF5
:1003E0004FEA00614FEA102042BF002010BC704766
:1003F00000EBC35010440029A4BF10BC7047401C40
:10040000490008BF20F0010010BC704710B5002B58
:1004100008DA401C41F1000192185B411A4301D1F6
:1004200020F0010010BD2DE9F04D92469B4611B120
:10043000B1FA81F202E0B0FA80F22032904600F088
:1004400053F804460F4640EA0A0041EA0B015346BE
:100450005A46084313D0114653EA010019D0C8F197
:100460004002504600F04FF805460E4650465946A9
:10047000424600F039F8084305D0012004E0204648
:100480003946BDE8F08D0020054346EAE0762C436E
:1004900037430A986305E40AA0EB08000022FD0A2E
:1004A00044EA47540A3002D500200146E9E7010535
:1004B00010196941DDE9084500196941BDE8F04DB1
:1004C000A4E70000064C074D06E0E06840F0010399
:1004D00094E8070098471034AC42F6D3FFF72CFE9F
:1004E000244B0008444B0008202A04DB203A00FA81
:1004F00002F1002070479140C2F1200320FA03F37B
:10050000194390407047202A04DB203A21FA02F078
:100510000021704721FA02F3D040C2F1200291403D
:10052000084319467047000008B50121082001F072
:100530008DF82020ADF8000010208DF80300032076
:100540008DF802006946024800F016FC08BD000064
:10055000000C014010B500F0D7FC012001F0D0FEE6
:10056000072001F0CDFE112001F0CAFEB42001F0F9
:100570000BFF10BD00BFFEE70F49B1F800140C39A6
:10058000C8B204E000210C4A1154411CC8B20A4907
:10059000B1F80014C1F30E01491C8142F2DC064996
:1005A000B1F800140C39044AB2F8002461F30E02C9
:1005B0000149A1F800247047E604002010B500248A
:1005C00000F024F804E0601CC4B2012001F002FF36
:1005D0000D48006808B1642CF5DB642C01DB0120B8
:1005E00010BD002404E0601CC4B2012001F0F2FE42
:1005F0000548006808B9642CF5DB642C01DB012098
:10060000EEE70020ECE700001001214208B51020C1
:10061000ADF8000048208DF803006946014800F05D
:10062000ABFB08BD0008014008B51020ADF8000084
:100630008DF8030003208DF802006946014800F0A0
:100640009BFB08BD0008014008B50121042000F013
:10065000FDFF1020ADF800008DF8030003208DF899
:1006600002006946054800F087FB1021034800F0AE
:1006700019FC00F067F8FFF7A1FF08BD0008014072
:1006800010B5002404E0601CC4B2012001F0A2FEF9
:100690000D48006808B1642CF5DB002404E0601C00
:1006A000C4B2012001F096FE0748006808B9642C26
:1006B000F5DB282001F08EFE0348006808B1012018
:1006C00010BD0020FCE700001001214270B500249D
:1006D000002506E06006040EFFF7D2FF0443681C05
:1006E000C5B2082DF6DB204670BD7CB505460E462A
:1006F00000F028F8FFF762FFF8B9002405E0FFF7E3
:10070000E5FF0DF80400601CC4B2052CF7DB9DF872
:1007100000009DF8011008449DF8021008449DF85F
:10072000031008449DF80410884208D19DF8000089
:1007300030709DF80200287001E001207CBD00208F
:10074000FCE7000010B5FFF76FFF002006490860C6
:10075000142001F019FE01200449C1F890011E2067
:1007600001F038FE10BD000090012142000021423E
:100770007047000010B5002440210E4800F092FBA5
:100780004FF47A7001F000FE0FE04FF4FA7300228C
:1007900009A10AA000F008FA18B109A001F082FC32
:1007A00010BD00F0A1F9601CC4B20A2CEDDB00BF43
:1007B000F6E70000001801404F4B000041540000D4
:1007C0004154B7A2CBCDB3C9B9A6A3A10D0A00006D
:1007D00010B586B004460CB1012000E000200246AE
:1007E00006A101A801F06EFC4FF4FA73002207A1E4
:1007F00001A800F0D9F906B010BD000041542B4308
:1008000049504D55583D2564000000004F4B0000F5
:1008100010B54FF47A7001F0B7FD04A1044801F05F
:10082000BCFB4FF4FA7001F0AFFD10BD2B2B2B0079
:100830000044004010B54FF4FA7300220DA10EA041
:1008400000F0B2F9A0B110A11248FFF7ABFC08B15B
:10085000022010BD10A10F48FFF7A4FC08B103202F
:10086000F7E710A10B48FFF79DFC08B10420F0E763
:100870000020EEE74F4B000041542B4349505354A6
:1008800041545553000000005354415455533A32DB
:100890000D0A0000E60400205354415455533A33E6
:1008A0000D0A00005354415455533A340D0A0000C8
:1008B00038B504460121442000F0C8FE4020ADF8C0
:1008C000000010208DF8030003208DF80200694617
:1008D0000A4800F051FA4020ADF800006946084887
:1008E00000F04AFA204601F087F94021034800F061
:1008F000D9FA4021024800F0D3FA38BD001801406F
:10090000000801402DE9F04105460F464FF4FA7307
:10091000002210A110A000F047F912A11348FFF720
:1009200041FC06460EB1B61D02E00020BDE8F08194
:10093000002409E0305D2855285D222802D10020DE
:10094000285503E0601CC4B2BC42F3DB00BF0120A9
:10095000ECE700004F4B000041542B4349465352F3
:1009600000000000415049502C220000E604002005
:1009700030B59FB004460D462B46224606A101A87D
:1009800001F0A0FB41F28833002208A101A800F089
:100990000BF91FB030BD000041542B43574A415062
:1009A0003D222573222C2225732200004F4B00008C
:1009B000F0B5B9B006460F4614461D46642120A87E
:1009C000FFF7D9FB16B1012E10D107E03B4614A268
:1009D00014A120A8009401F075FB08E03B4615A285
:1009E00010A120A8009401F06DFB00E000BF00BF43
:1009F000052D06DA20AB2A460FA102A801F062FB02
:100A000004E020AA11A102A801F05CFB4FF47A6374
:100A100012A216A102A800F0C7F839B0F0BD00007C
:100A200054435000222573222C222573222C257337
:100A3000000000005544500041542B43495053548A
:100A40004152543D25642C257300000041542B4332
:100A5000495053544152543D25730000414C524576
:100A6000415920434F4E4E45435400004F4B000028
:100A700010B5044624B1012C0AD0022C18D10FE085
:100A800040F6C4130BA20EA10EA000F08DF810BD0D
:100A900040F6C41307A20AA10DA000F085F8F6E7FE
:100AA00040F6C41303A206A10CA000F07DF8EEE707
:100AB0000020ECE76E6F206368616E6765000000E0
:100AC0004F4B000041542B43574D4F44453D31009F
:100AD00041542B43574D4F44453D320041542B4325
:100AE000574D4F44453D330010B54021054800F0B7
:100AF000D7F94FF4FA7001F047FC4021014800F0AB
:100B0000D1F910BD001801402DE9F04186B007462B
:100B10000C4615461E464FF000083FB1224614A170
:100B2000144801F03AFA4FF001081CE0052E06DAED
:100B3000AB1C324610A101A801F0C4FA04E0AA1CC3
:100B400012A101A801F0BEFA4FF47A73002213A19A
:100B500001A800F029F84FF47A73002210A1204672
:100B600000F022F88046404606B0BDE8F081000063
:100B7000257300000044004041542B434950534525
:100B80004E443D25642C25640000000041542B4355
:100B9000495053454E443D25640000003E2000006E
:100BA00053454E44204F4B002DE9F04106460C467C
:100BB00015461F462548B0F800046FF30E00234980
:100BC000A1F80004324622A1234801F0E6F91CB93D
:100BD00015B90120BDE8F081B8B201F0D5FB0020C5
:100BE0001A49B1F80014C1F30E01184A50541146C5
:100BF0001AA001F057FAB4B1ADB121461348FFF77E
:100C0000D1FA08B1012000E0002040B929460F4880
:100C1000FFF7C8FA08B1012000E0002008B1012068
:100C2000D8E70020D6E744B121460848FFF7BAFAD2
:100C300008B10120CEE70020CCE729460348FFF7A2
:100C4000B1FA08B10120C5E70020C3E7E60400209F
:100C500025730D0A000000000044004025730000C9
:100C600070B5BCB004460D461646FCB12B460122B9
:100C700015A11EA801F026FA324618A1684601F017
:100C800021FA4FF4FA73002218A11EA8FFF78CFF77
:100C900050B14FF4FA73002214A16846FFF784FFA5
:100CA00010B101203CB070BD0020FBE72B460022B4
:100CB00005A11EA801F006FA4FF4FA7300220BA159
:100CC0001EA8FFF771FFEDE741542B4349505345F0
:100CD000525645523D25642C2573000041542B4348
:100CE000495053544F3D2573000000004F4B000006
:100CF00010B54FF4FA73002207A108A0FFF754FFC4
:100D000008B9002010BD4FF4FA7308A202A108A090
:100D1000FFF74AFFF6E700004F4B000041542B431A
:100D200049504D4F44453D31000000003E00000059
:100D300041542B43495053454E44000008B54FF4ED
:100D40000060ADF8000004208DF8030069460948F2
:100D500000F012F84FF48060ADF8000003208DF829
:100D6000020018208DF803006946024800F004F8DC
:100D700008BD0000001001402DE9F04102460025A9
:100D80000026002000230024002791F803C00CF067
:100D90000F0591F803C00CF0100CBCF1000F03D04C
:100DA00091F802C04CEA050591F800C0BCF1000FB3
:100DB00031D0146800202BE04FF0010C0CFA00F346
:100DC000B1F800C00CEA03069E4220D183004FF028
:100DD0000F0C0CFA03F7BC4305FA03FC4CEA0404BD
:100DE00091F803C0BCF1280F06D14FF0010C0CFAAA
:100DF00000FCC2F814C00AE091F803C0BCF1480F2F
:100E000005D14FF0010C0CFA00FCC2F810C0401CD8
:100E10000828D1D31460B1F800C0BCF1FF0F34DD55
:100E2000546800202EE000F1080C4FF0010808FA89
:100E30000CF3B1F800C00CEA03069E4221D18300F6
:100E40004FF00F0C0CFA03F7BC4305FA03FC4CEA15
:100E5000040491F803C0BCF1280F05D100F1080C7F
:100E600008FA0CF8C2F8148091F803C0BCF1480FDE
:100E700007D100F1080C4FF0010808FA0CF8C2F88D
:100E80001080401C0828CED35460BDE8F081024693
:100E9000002093680B400BB1012000E00020704758
:100EA000416170470161704710B50446214604480E
:100EB000FFF778F908B1012010BD0020FCE7000021
:100EC000E604002000BFFEE710B54FF480610D4836
:100ED000FFF7E6FF00F098F84FF400610948FFF7CC
:100EE000DFFF022001F076FA4FF480610548FFF73A
:100EF000D9FF052001F06EFA4FF480610148FFF739
:100F0000CFFF10BD000C014008B50121082000F002
:100F10009DFB4FF44060ADF8000003208DF8020007
:100F200010208DF8030069460648FFF725FF4FF4AF
:100F300080610448FFF7B6FF4FF400610148FFF7F6
:100F4000B1FF08BD000C014010B54FF480610D48A1
:100F5000FFF7A6FF00F058F84FF400610948FFF7CB
:100F6000A1FF022001F036FA4FF480610548FFF737
:100F700099FF052001F02EFA4FF480610148FFF738
:100F80008FFF10BD000C014070B5054600260024FF
:100F900000F02AF800BF1BE04FF480611148FFF712
:100FA0007FFF022001F016FA4FF480610D48FFF731
:100FB00079FF6006040E4FF400610A48FFF767FFEF
:100FC00008B1601CC4B2012001F004FA701CC6B262
:100FD000082EE1DB15B9FFF7B7FF01E0FFF774FF5B
:100FE000204670BD000C014008B54FF40060ADF81C
:100FF000000048208DF8030069460248FFF7BCFE58
:1010000008BD0000000C014008B54FF40060ADF8C9
:10101000000003208DF8020010208DF803006946BF
:101020000148FFF7A9FE08BD000C014070B5044659
:101030000025FFF7E9FF4FF480611548FFF730FF07
:1010400000BF22E004F08000002805DD4FF40061BD
:101050000F48FFF727FF04E04FF400610C48FFF74B
:101060001FFF6006040E4FF480610948FFF71AFF66
:10107000022001F0AFF94FF480610548FFF710FF3F
:10108000022001F0A7F9681CC5B2082DDADB70BD9B
:10109000000C014010B5FFF7B7FF4FF400610C489A
:1010A000FFF700FF4FF480610948FFF7FBFE0520C2
:1010B00001F090F94FF400610548FFF7F1FE0620BA
:1010C00001F088F94FF480610148FFF7E9FE10BD97
:1010D000000C014010B5FFF797FF4FF480610C48FA
:1010E000FFF7DEFE4FF400610948FFF7D9FE4FF429
:1010F00080610748FFF7D6FE062001F06BF94FF438
:1011000000610348FFF7CEFE062001F063F910BD31
:10111000000C014010B50024FFF766FF4FF400619A
:101120001248FFF7BFFE012001F054F94FF480612F
:101130000E48FFF7B7FE012001F04CF907E0601CF4
:10114000C4B2FA2C03DDFFF7C5FF012010BD4FF438
:1011500000610648FFF79BFE0028F0D14FF4806144
:101160000248FFF79DFE0020F0E70000000C014060
:1011700008B50121202000F069FA4FF47060ADF845
:10118000000010208DF8030003208DF8020069464E
:101190000448FFF7F1FD4FF470610248FFF782FE4B
:1011A00008BD00000014014000BFFEE7704708B50D
:1011B00034208DF8000000208DF801008DF8020029
:1011C00001208DF80300684600F002F808BD000019
:1011D00070B5002100230F22C47804B3154C246895
:1011E00004F4E064C4F5E064210AC1F10403CA40D8
:1011F000447804FA03F184781440214309010E4C29
:101200000678A155047804F01F050124AC40057848
:101210006D11AD0005F1E025C5F8004109E0047845
:1012200004F01F050124AC40044D0678761145F802
:10123000264070BD0CED00E000E400E080E100E03D
:1012400002490143024A1160704700000000FA059C
:101250000CED00E030B500240CE0002506E0002095
:10126000074901EBC5010855681CC5B2802DF6DBA6
:10127000601CC4B2082CF0DB00F0CCF830BD0000DC
:10128000DC000020F0B5144600267F2801DC3F2951
:1012900000DDF0BD0B46CF1701EB5777FF10C7F10C
:1012A0000707FAB2CF1701EB5777FF10A1EBC7077B
:1012B000FDB2C5F107070123BB40DEB24CB10A4BBA
:1012C00003EBC0039B5C3343074F07EBC007BB54E2
:1012D00008E0054B03EBC0039B5CB343024F07EBF5
:1012E000C007BB5400BFD4E7DC00002008B50121D3
:1012F000202000F0ABF9F820ADF8000010208DF8A8
:10130000030003208DF8020069463F48FFF734FDD3
:10131000F8213D48FFF7C6FD01203C4908606420E4
:1013200001F032F800203A49C1F89001642001F040
:101330002BF80120354908600021AE2000F046F965
:101340000021D52000F042F90021502000F03EF9A4
:101350000021A82000F03AF900213F2000F036F9E2
:101360000021D32000F032F90021084600F02EF9C8
:101370000021402000F02AF900218D2000F026F9FC
:101380000021142000F022F90021202000F01EF995
:101390000021022000F01AF90021A12000F016F926
:1013A0000021C02000F012F90021DA2000F00EF92F
:1013B0000021122000F00AF90021812000F006F936
:1013C0000021EF2000F002F90021D92000F0FEF802
:1013D0000021F12000F0FAF80021DB2000F0F6F8FF
:1013E0000021302000F0F2F80021A42000F0EEF8F7
:1013F0000021A62000F0EAF80021AF2000F0E6F876
:10140000FFF728FF08BD0000001401409081224230
:101410000080224230B500241CE004F1B001C8B2C3
:10142000002100F0D3F80021084600F0CFF8002199
:10143000102000F0CBF8002508E0084901EBC501B9
:10144000085D012100F0C2F8681CC5B2802DF4DBF4
:10145000601CC4B2082CE0DB30BD0000DC000020C2
:101460002DE9F84F80460F4616461C46BA462046E0
:10147000E31704EB5373DB1021464FEAE47C04EBE3
:101480005C7C4FEAEC0CA4EBCC0CBCF1000F02D05E
:101490004FF0010C01E04FF0000C6344224604EBD6
:1014A000D27C4FEA6C0C03FB0CF303F0FF0BA6F1AC
:1014B0002000C6B200254EE00C2C07D106EB4600FA
:1014C000274901EB8000405D009013E0102C05D10E
:1014D000244800EB0610405D00900BE0182C07D16B
:1014E00006EBC600204901EB8000405D009001E062
:1014F000BDE8F88F4FF0000927E0009800F0800069
:1015000028B1394640460A9AFFF7BCFE09E00A981E
:1015100008B9012000E00020024639464046FFF7A6
:10152000B1FE00984006000E0090781CC7B2A7EBF1
:101530000A00A04205D1574608F1010000F0FF085B
:1015400006E009F1010000F0FF09B9F1080FD4DB52
:1015500000BF681CC5B25D45AEDB00BFC8E7000038
:10156000A432000818370008083D0008F8B5064600
:101570000F4615461C4621E004EBD4714910C1F119
:101580008001B14202DA00263819C7B2C4F1400026
:10159000B84204DA002006460746FFF75BFE01204A
:1015A00000902A78234639463046FFF759FF2046F7
:1015B00004EBD07106EB6101CEB26D1C28787E2859
:1015C00002DC28782028D7DAF8BD000010B5144BCB
:1015D00019600023134CC4F88C31002216E000235C
:1015E0000F4C241D236000F080031BB10123241D38
:1015F000236003E000230A4C083423600123084CD5
:10160000241D23604306180E531CDAB2082AE6DBB9
:101610000123034C083C2360024CC4F8943110BDF4
:1016200094812242008022427047000029B1064A7C
:10163000D2690243044BDA6104E0034AD26982436F
:10164000014BDA61704700000010024029B1064AE0
:1016500092690243044B9A6104E0034A926982430F
:10166000014B9A61704700000010024010B5012143
:101670001120FFF7EBFF0121C804FFF7D7FF10BDD2
:1016800030B500210022002400232D4D6D6805F0A7
:101690000C0121B1042905D0082923D105E0294DE9
:1016A000056022E0274D05601FE0254D6D6805F4BB
:1016B0007012234D6D6805F48034022505EB9242CB
:1016C0001CB9214D554305600BE01D4D6D6805F4B7
:1016D00000351DB11C4D5543056002E0194D5543C1
:1016E000056002E0174D056000BF00BF144D6D6836
:1016F00005F0F0010909154D6B5C0568DD4045609A
:101700000F4D6D6805F4E061090A104D6B5C45688A
:10171000DD4085600A4D6D6805F46051C90A0B4DC6
:101720006B5C4568DD40C560054D6D6805F4404162
:10173000890B074D6B5CC568B5FBF3F5056130BDE2
:101740000010024000127A0000093D0093000020C2
:10175000A3000020704710B500F002F810BD000093
:101760000CB50020019000903348006840F48030B0
:101770003149086000BF3048006800F40030009034
:101780000198401C0190009818B90198B0F5A06F1D
:10179000F1D12948006800F4003010B10120009018
:1017A00001E0002000900098012843D12348006800
:1017B00040F01000214908600846006820F003004E
:1017C00008600846006840F0020008601A48406857
:1017D000194948600846406848600846406840F437
:1017E000806048600846406820F47C1048600846E5
:1017F000406840F4E81048600846006840F0807097
:10180000086000BF0C48006800F000700028F9D0A4
:101810000948406820F003000749486008464068CE
:1018200040F00200486000BF0348406800F00C0030
:101830000828F9D10CBD0000001002400020024031
:10184000042808D14FF0E021096941F004014FF06C
:10185000E022116107E04FF0E021096921F0040165
:101860004FF0E022116170477047000010B5044648
:101870006FF00400FFF7E4FFE11704EB5171C1F3CF
:10188000C701074A11701046007800EB4001C1EB18
:10189000C0104FF6FF7101EAC0000249088010BD78
:1018A000D2000020D400002010B51348006840F09A
:1018B00001001149086008464068104908400E4977
:1018C0004860084600680E4908400B490860084611
:1018D000006820F4802008600846406820F4FE007C
:1018E00048604FF41F008860FFF735FF4FF000603D
:1018F0000449086010BD0000001002400000FFF81D
:10190000FFFFF6FE08ED00E010B54548007870B91D
:101910000121444800F098F848B14348007800F0AD
:10192000400020B140480078401C3F490870022127
:101930003C4800F089F800286CD03B48007800F063
:10194000800028B33848007800F0400000B3012040
:1019500033490870334800F074F83449088032483D
:10196000007800F03F003249086008460088000413
:101970000860084600682D49098808442C49086019
:101980000020294908700021264800F06EF841E047
:101990002548007800F0400048B301202549087030
:1019A0002148007840F080001F4908701D4800F071
:1019B00048F81E4908801C48007800F03F001E4986
:1019C0000860084600880004086008460068174957
:1019D00009880844184908601348007820F03F003F
:1019E0001149087000210F4800F03FF812E0002074
:1019F0000D4908700D49088000210A4800F03EF8A2
:101A00000948007840F04000074908700221054865
:101A100000F02BF80321034800F010F810BD00007F
:101A2000B9000020000C0040A8000020AA000020FF
:101A3000B4000020B8000020B0000020CA43028299
:101A400070470146888E704730B50246002000235B
:101A50000024158A05EA0103958905EA010413B1FA
:101A60000CB1012000E0002030BD0A460021018CAD
:101A70004FF6FD731940114301847047818470470C
:101A800010B540F22551144800F0ABF918B31248D4
:101A900000F062FAC1B2114802780078401C0F4B86
:101AA00018700F4881541846007809280ED100207C
:101AB000194608700A4800F02FFD0948007A0949C4
:101AC0000978884202D101200749087040F2255167
:101AD000014800F05EF910BD004C0040C600002037
:101AE000DC040020C5000020BA00002070B500BF53
:101AF00040F225512E4800F074F9002830D02C48CF
:101B000000F02AFAC4B22B48B0F80004C0F30E006B
:101B100040F2FF3188420EDA2649B1F80014C1F3D1
:101B20000E00411C234AB2F8002461F30E02214941
:101B3000A1F800240C5420A0FFF7B6F910B1012041
:101B40002049087020A0FFF7AFF910B1012021490A
:101B5000087021A0FFF7A8F910B1012021490870F1
:101B600040F22441124800F03CF901281ED11048EF
:101B70000088C5B20E48001D0088C5B20D48B0F8F7
:101B8000000420F4004000F500400A49A1F80004D8
:101B9000074800F0E1F9C4B213A10648FEF702FBC2
:101BA00008B1012000E000201249087070BD00005B
:101BB00000440040E60400202B4950442C312C34D2
:101BC0003A310000CE0000202B4950442C322C34F6
:101BD0003A320000CF0000202B4950442C332C34E3
:101BE0003A330000D0000020434C4F5345440D0AC7
:101BF00000000000D100002010B586B0044601218D
:101C00004804FFF713FD01210420FFF71FFD042006
:101C1000ADF8140003208DF8160018208DF8170079
:101C200005A91C48FFF7A8F80820ADF81400042007
:101C30008DF8170005A91748FFF79EF826208DF8A4
:101C4000000000208DF8010001208DF802008DF8C1
:101C500003006846FFF7BCFA01940020ADF80800C5
:101C6000ADF80A00ADF80C00ADF810000C20ADF88E
:101C70000E0001A9084800F003F9012240F22551A5
:101C8000054800F0D8F80121034800F091F806B0AB
:101C900010BD0000000801400044004010B540F2B3
:101CA0002551204800F09DF8D8B11E4800F054F9A5
:101CB000C4B21D48B0F80004C0F30E0040F2FF317A
:101CC00088420EDA1849B1F80014C1F30E00411C25
:101CD000154AB2F8002461F30E021349A1F800245A
:101CE0000C5440F224410F4800F07BF8012817D132
:101CF0000D48B0F8000420F4004000F500400A4907
:101D0000A1F80004074800F027F9C4B207A106486B
:101D1000FEF748FA08B1012000E0002006490870EB
:101D200010BD000000480040E6040020434C4F5323
:101D300045440D0A00000000D10000201FB54FF4FB
:101D4000165000900020ADF80400ADF80600ADF884
:101D50000800ADF80C000C20ADF80A0069460748F1
:101D600000F08EF8012240F22551044800F063F89B
:101D70000121024800F01CF81FBD0000004C00408B
:101D800001F40072B2F5007F00D100BFCA430280A7
:101D9000704710B50022002340F66A14A14200D11A
:101DA00000BF0A1201249440A3B2DC43048010BD9A
:101DB00021B1828942F40052828104E082894DF689
:101DC000FF731A408281704702460020B1F5007F00
:101DD00000D100BF13880B400BB1012000E00020B0
:101DE000704770B50246002400230025002040F60D
:101DF0006A16B14200D100BFC1F3421501F01F03C2
:101E0000012606FA03F3012D02D19689334006E03C
:101E1000022D02D1168A334001E0968A33400C121B
:101E2000012606FA04F41688344013B10CB10120DF
:101E300000E0002070BDF0B5034600240026002518
:101E4000002040F66A17B94200D100BF1846C1F31E
:101E5000421401F01F06012707FA06F5012C01D1F3
:101E60000C3004E0022C01D1103000E014301AB123
:101E700007682F43076002E00768AF430760F0BDC3
:101E80002DE9F04786B005460E460024A24600BF65
:101E9000A1460027B08900B100BF2F462C8A4CF61E
:101EA000FF700440F08804432C82AC894EF6F31096
:101EB0000440B08831890843718908430443AC81E8
:101EC000AC8A4FF6FF400440B0890443AC8201A8BD
:101ED000FFF7D6FB1F48874202D1DDF810A001E0D2
:101EE000DDF80CA0A88900F4004040B10AEBCA005C
:101EF00000EB0A1031684900B0FBF1F807E00AEB8B
:101F0000CA0000EB0A1031688900B0FBF1F86420C8
:101F1000B8FBF0F004012009642101FB1089A889B5
:101F200000F4004040B1322000EBC900B0FBF1F0FA
:101F300000F00700044308E0322000EB09106421A0
:101F4000B0FBF1F000F00F0004432C8106B0BDE8B7
:101F5000F08700000038014001468888C0F308007F
:101F60007047C1F30802828070472DE9F0410746AF
:101F70000D46164600240CE0295D3846FFF7F1FFB8
:101F800000BF40213846FFF71FFF0128F9D1601C30
:101F900084B2B442F0DBBDE8F0810FB470B586B016
:101FA00006460CA8019073E00B9800785C281CD1C1
:101FB0000B98401C0B9000786E2809D072280FD126
:101FC0000D213046FFF7CDFF0B98401C0B900BE026
:101FD0000A213046FFF7C5FF0B98401C0B9003E029
:101FE0000B98401C0B9000BF4BE00B980078252805
:101FF00040D10B98401C0B900078642818D07328AF
:1020000033D1019810C801900BE021783046FFF7DA
:10201000A8FF00BF80213046FFF7D6FE0028F9D088
:10202000641C20780028F0D10B98401C0B9020E015
:10203000019820C801900A2202A9284600F0B7FAA8
:1020400002AC0BE021783046FFF78BFF00BF802108
:102050003046FFF7B9FE0028F9D0641C207800282C
:10206000F0D10B98401C0B9003E00B98401C0B9098
:1020700000BF06E00B9810F8011B0B903046FFF7ED
:1020800070FF00BF80213046FFF79EFE0028F9D088
:102090000B980078002887D106B070BC5DF814FB5F
:1020A00000BFFEE70FB4054B10B503A9044A029820
:1020B00000F02CF810BC5DF814FB0000F5240008BB
:1020C000D80000200FB4084B10B504A902AA039849
:1020D00000F01CF8044602A9002000F0F3F82046A6
:1020E00010BC5DF814FB0000C522000802E008C81F
:1020F000121F08C1002AFAD170477047002001E082
:1021000001C1121F002AFBD1704700002DE9FF4FCB
:102110008BB09A460F460546002606E025280BD0D0
:1021200052460D9990476D1C761C28780028F5D1F1
:102130000FB03046BDE8F08F0024A0460122604970
:1021400000E0044315F8013F203B02FA03F0084287
:10215000F7D128782E2817D115F8010F44F0040480
:102160002A280ED06FF02F022878A0F1300109291B
:102170000AD808EB880102EB410100EB01086D1C55
:10218000F2E757F8048B6D1C287869283ED006DCEE
:102190000028CDD063280BD0642804D136E0732802
:1021A00010D075284BD052460D999047761C85E08B
:1021B00017F8040B8DF8000000208DF80100E946A7
:1021C000012003E057F8049B4FF0FF3061074FF008
:1021D000000401D40AE0641C44450DDA8442FADBB1
:1021E00019F804100029F6D106E0641C8442FCDBD7
:1021F00019F804100029F8D1264404E019F8010B5D
:1022000052460D999047641EF8D257E001CF4FF027
:102210000A0B002802DA40422D2102E0210504D5F4
:102220002B218DF82410012103E0E10705D02021A6
:10223000F7E70DF1200908910CE00021F9E701CF43
:102240004FF00A0BF9E75946FEF793F801F1300217
:1022500009F8012D0028F6D1ADEB090000F1200BA3
:10226000600701D44FF00108D84502DDA8EB0B0050
:1022700000E000208046002406E009A85246005DE8
:102280000D999047641C761C08988442F5DB04E0A5
:10229000302052460D999047761CB8F10001A8F104
:1022A0000108F5DC05E019F8010B52460D9990473D
:1022B000761CBBF10001ABF1010BF4DC6D1C34E7C3
:1022C000092801000A68531C0B601070704710B594
:1022D000FEF7E0FE4720FEF7A9FEFEF71BFF0120F8
:1022E000FEF752FE04464FF6FF7000EA0424002079
:1022F000FEF74AFE204484B2FEF7ECFE204610BDF5
:1023000010B5044600BFFEF7C5FE4620FEF78EFE60
:10231000FEF700FF0028F6D12046FEF787FEFEF705
:10232000F9FEFEF7D7FE10BD014608090A4660F324
:102330001F12104670477CB504460D46694601A839
:10234000FEF7D3F99DF804000A2190FBF1F030303C
:1023500020709DF8040090FBF1F201FB1200303078
:1023600060700020A0709DF8000090FBF1F030300C
:1023700028709DF8000090FBF1F201FB1200303054
:1023800068700020A8707CBD0146114A12884A433B
:102390004FF0E0235A6100229A611A46126942F016
:1023A00001021A6100BF4FF0E022106900F0010243
:1023B0001AB100F48032002AF5D04FF0E022126901
:1023C00022F001024FF0E0231A6100229A61704767
:1023D000D40000200146114A12784A434FF0E0230E
:1023E0005A6100229A611A46126942F001021A618A
:1023F00000BF4FF0E022106900F001021AB100F4B2
:102400008032002AF5D04FF0E022126922F001025A
:102410004FF0E0231A6100229A617047D200002039
:1024200070B50346002000221C4604E00A25B3FBD9
:10243000F5F3451CE8B2002BF8D1051DEAB203E024
:1024400030258D54551EEAB2042AF9DC051DEAB286
:102450000BE00A25B4FBF5F605FB164530358D5427
:102460000A25B4FBF5F4551EEAB2042AF1DC702605
:10247000451D4E55851D4E556D26C51D4E550026D4
:102480006D1C4E550A266D1C4E5570BD70B5034629
:10249000002000221C4604E00A25B3FBF5F3451C8E
:1024A000E8B2002BF8D1451DEAB203E030258D5487
:1024B000551EEAB2052AF9DC451DEAB20BE00A25F1
:1024C000B4FBF5F605FB164530358D540A25B4FBF3
:1024D000F5F4551EEAB2052AF1DC2026851D4E557D
:1024E0006C26C51D4E5578266D1C4E5500266D1C5C
:1024F0004E5570BD70B504460D46E1B20548FFF774
:1025000030FD00BF80210348FFF75EFC0028F9D0B2
:10251000204670BD003801400146012007E00A5CFA
:10252000094B1B781A44084B1A70421CD0B2082879
:10253000F5DB054A1278C2F1FF02034B1A701A4606
:102540001278521C1A707047C5000020F0B503467F
:102550000D461646002729460A2E03D00020087093
:102560002846F0BD33B9302001F8010B0020087077
:102570002846F6E7002B03DA2D2001F8010B5B4219
:1025800042F210720DE093FBF2F404B937B104F19A
:10259000300001F8010B04FB123301270A2092FBE3
:1025A000F0F2002AEFDC002008702846D9E7F0B5E9
:1025B00003460D461646002729460A2E03D0002062
:1025C00008702846F0BD33B9302001F8010B002017
:1025D00008702846F6E7002B03DA2D2001F8010BDE
:1025E0005B4242F210720DE093FBF2F404B937B192
:1025F00004F1300001F8010B04FB123301270A201B
:1026000092FBF0F2002AEFDC002008702846D9E7A0
:102610000EB500240020009001900290FFF744F9CD
:102620004820FFF723F94FF4C060FEF709FEFFF7DB
:102630001DF8FEF7BCFDFEF781FBFFF77FFB00F006
:10264000DBFDFDF787FFFEF793FDFDF76DFFFEF75E
:102650004DFE0BE01023EDA200210846FEF786FF99
:10266000FEF7D8FE4FF4FA70FFF78EFEFDF7ECFF91
:102670000028EFD11023E9A200210846FEF776FFDB
:10268000FEF7E8FD1023E9A200210846FEF76EFFE1
:102690001023E9A219460020FEF768FFFEF7BAFEF4
:1026A0004FF41650FEF704F9E6A0FFF7FBFC4021BB
:1026B000ED48FEF7F7FBFEF75DF80220FEF7D8F9CC
:1026C000EAA0FFF7EFFC00BFEDA1F0A0FEF750F984
:1026D0000028F9D0EFA0FFF7E5FC0120FEF778F81D
:1026E00000BFF1A2F2A10120FEF7BAFA0028F8D04B
:1026F00014216846FEF706F96946EFA0FFF7D2FC01
:1027000000BF0023EAA2F4A11846FEF751F9002801
:10271000F7D000BF0123F4A2F5A10020FEF748F98D
:102720000028F7D0F6A0FFF7BDFCFB48B0F8000486
:102730006FF30E00F849A1F800040846B0F8000451
:1027400020F40040A1F80004FEE3FEF783FD10230F
:10275000B6A200210846FEF709FF1023B6A21946CB
:102760000020FEF703FFFEF755FE0922EB49EC4877
:10277000FFF7FBFBEB480078A0B1EB49C878FFF707
:10278000D3FD0546E8498878FFF7CEFD05EB00202C
:10279000E649086008460168E5A0FFF783FC0020D1
:1027A000E0490870E749E1480068FFF739FE102367
:1027B000E44A20210020FEF7D9FEFEF72BFEC820B8
:1027C000FFF7E2FDE049E148FFF7B5FD1023DF4ADE
:1027D00000212820FEF7CAFEFEF71CFE1023DA4A6D
:1027E00019462820FEF7C2FEFEF714FEFFF76FFD24
:1027F0008146FDF768FD07464FF03332D44BFDF7B5
:10280000F3FC0546FDF799FDD249086008460068CB
:10281000FDF77FFD0546D049FFF738FE1023CE4A6D
:1028200030210020FEF7A2FEFEF7F4FD4FF4967073
:10283000FFF7AAFDC948CAA109880180C948CAA1F1
:1028400009880180C948CAA109880180C948CAA16C
:1028500009880180C9A16846FDF7BDFC0A226946C6
:10286000B2480068FFF772FE6946BC48FDF78EFC6F
:10287000C4A16846FDF7AFFCB6480068FDF730FD1F
:10288000C24908600A226946C0480068FFF75EFE38
:102890006946B448FDF77AFCAC49B448FDF776FCCC
:1028A000A949B448FDF772FCAC48FDF78DFC05461C
:1028B00000232A46A9491846FEF726F9A948FDF73C
:1028C00083FC054600232A46A6491846FEF71CF954
:1028D000A648FDF779FC054600232A46A349184679
:1028E000FEF712F9A348FDF76FFC054600232A46C0
:1028F000A0491846FEF708F9A4480068B0F5487FDB
:102900000DDDA348FDF760FC054601232A46A149D9
:102910000020FEF7F9F8A0A0FFF7C4FB10E09B48E9
:10292000006832280CDA9A48FDF74EFC0546012370
:102930002A4697490020FEF7E7F89AA0FFF7B2FB76
:1029400092480068B0F5487F0DDD9148FDF73CFCEA
:10295000054601232A468F490020FEF7D5F88EA0B0
:10296000FFF7A0FB10E08948006832280CDA88489D
:10297000FDF72AFC054601232A4685490020FEF77B
:10298000C3F888A0FFF78EFB89498A48FDF7ADFEA2
:102990008748007828281BDD8748FDF715FC054689
:1029A00001232A4684490020FEF7AEF84FF4FA705E
:1029B000FFF7EAFC8148FDF707FC054601232A469C
:1029C0007E490020FEF7A0F87DA0FFF76BFB08E131
:1029D00077480078192818DA7E48FDF7F5FB054698
:1029E00001232A467B490020FEF78EF84FF4FA7047
:1029F000FFF7CAFC7848FDF7E7FB054601232A46A6
:102A000075490020FEF780F8E8E0EAE044485431D8
:102A100031204552524F52210000000044485431A9
:102A200031205355434345535321000054656D7085
:102A30003A2020202043000048756D693A2020206C
:102A4000255248000D0AD5FDD4DAC5E4D6C3455356
:102A50005038323636C7EBC4CDD0C4B5C8B4FD2E1D
:102A60002E2E0D0A0000000000080140B3C9B9A6CF
:102A7000C9E8D6C3CEAA535441C4A3CABD0D0A00A7
:102A800070757A686F6E67313638000050555A4855
:102A90004F4E4700B3C9B9A6C1ACBDD377696669CB
:102AA000C8C8B5E30D0A000031383030000000001E
:102AB0003830383000000000B3C9B9A6BDA8C1A2A3
:102AC000D6F7BBFA0D0A2CB1BEBBFA4950B5D8D621
:102AD000B7CEAA25730000003139322E3136382E98
:102AE0003139312E31000000353030300000000027
:102AF0003139322E3136382E3139312E3200000044
:102B00000D0AC5E4D6C345535038323636204F4BF4
:102B1000A3A10D0A00000000E6040020BB00002075
:102B2000004C0040BA000020DC0400202C000020F3
:102B3000434F32C5A8B6C8CEAAA3BA256420707088
:102B40006D0D0A0002000020150000201200002078
:102B50003333F33F280000201800002045000020F8
:102B60004300000056000020490000004C000020F7
:102B700054000000510000204800000020202020C8
:102B800020202000202020202020000030000020D5
:102B90005D00002078000020B9D8B1D54C45443202
:102BA0000D0A0000B4F2BFAA4C4544320D0A0000E1
:102BB00041000020400000208A0000208100002009
:102BC000B9D8B1D5BCCCB5E7C6F733BACD320D0A0A
:102BD000000000006F00002066000020FBA0FFF74F
:102BE00061FAFDF7C9FC4FF4E160FFF7CDFBFC484B
:102BF000007830B9FB48007818B9FB480078002805
:102C00007ED0FAA0FFF74EFA002240F22551F94893
:102C1000FFF711F9F8A0FFF745FAF949F9A0FFF716
:102C200041FAFAA0FFF73EFAED48007800284DD0AF
:102C3000F8A0FFF737FAFAA1F148FDF7B3FAFB491C
:102C40000860E0B1FAA0FFF72DFAF84800680B30F1
:102C5000FB49086008460068007880B108460068B3
:102C6000407860B1084600684078303809680978D3
:102C7000303901EB810100EB4100F2490870F2A10B
:102C8000DF48FDF78FFAE9490860E0B1F1A0FFF7EE
:102C900009FAE64800680B30E94908600846006810
:102CA000007880B108460068407860B10846006846
:102CB0004078303809680978303901EB810100EB40
:102CC0004100E94908700020C5490870C5480078EE
:102CD00000284FD0E5A0FFF7E5F9E7A1C848FDF7C8
:102CE00061FAD2490860F0B1E6A0FFF7DBF9CF48FE
:102CF00000680B30D249086008460068007800E0A0
:102D000093E080B108460068407860B108460068EA
:102D10004078303809680978303901EB810100EBDF
:102D20004100C8494870DBA1B548FDF73BFABF49EF
:102D30000860E0B1DAA0FFF7B5F9BC4800680B30D5
:102D4000BF49086008460068007880B108460068FE
:102D5000407860B1084600684078303809680978E2
:102D6000303901EB810100EB4100BF494870002080
:102D70009C4908709C48007800284DD0CDA0FFF7F2
:102D800091F9CFA19E48FDF70DFAA8490860E0B17E
:102D9000CEA0FFF787F9A54800680B30A849086066
:102DA00008460068007880B108460068407860B145
:102DB000084600684078303809680978303901EBF6
:102DC000810100EB41009F498870C4A18C48FDF748
:102DD000E9F996490860E0B1C3A0FFF763F99348A9
:102DE00000680B309649086008460068007880B19A
:102DF00008460068407860B108460068407830387E
:102E000009680978303901EB810100EB41009649EE
:102E10008870002074490870012240F225517548DD
:102E2000FFF709F8B5A0FFF73DF900240CE08E4844
:102E3000025D611CB3A0FFF735F98248025D611C99
:102E4000B7A0FFF72FF9641C032CF0DBFEF702FAA2
:102E50001023BAA200210846FEF788FB82490878B1
:102E60000A22B949FFF772FB1023B74A0021182044
:102E7000FEF77CFBAFF2F821B348FDF7ACF9102365
:102E8000B2A200214020FEF771FB6E4908780A22A9
:102E9000AD49FFF75BFB1023AB4A00215820FEF73A
:102EA00065FBAFF22431A848FDF795F91023AAA2DB
:102EB00019460020FEF75AFB6B4948780A22A249BE
:102EC000FFF744FB1023A04A19461820FEF74EFBDB
:102ED000AFF254319C48FDF77EF91023A1A21946A8
:102EE0004020FEF743FB574948780A229649FFF7EE
:102EF0002DFB1023944A19465820FEF737FBAFF2FA
:102F000080319148FDF767F9102399A22021002014
:102F1000FEF72CFB544988780A228B49FFF716FBF1
:102F20001023894A20211820FEF720FBAFF2B03190
:102F30008548FDF750F9102390A220214020FEF78C
:102F400015FB4049887800E044E10A227E49FFF7FA
:102F5000FDFA10237C4A20215820FEF707FBAFF230
:102F6000E0317948FDF737F9FEF754FA40F2DC50CA
:102F7000FFF70AFA8448007830B3FDF749FC00BF38
:102F8000FDF758FC81490870084600780028F7D002
:102F900008460078042818D17DA0FFF783F800BF09
:102FA000AFF22451AFF21C50FDF7E2FC0028F7D03D
:102FB00000BF0023AFF20852AFF2E4411846FDF71C
:102FC000F7FC0028F5D0F5E0FCE0F6E0B4F2BFAA8B
:102FD000BCCCB5E7C6F733BACD320D0A000000000D
:102FE000CE000020CF000020D0000020BDF8C8EBAC
:102FF0000D0A00000044004073746172740D0A00F1
:10300000E60400200D0A25730D0A0000656E640DAC
:103010000A000000666C616731D6C3CEBB0D0A00A2
:103020002B4950442C312C343A31480038000020D0
:103030006765742068756D6964697479310D0A007B
:103040003C000020CB0000202B4950442C312C3474
:103050003A3154006765742074656D6572617475EA
:103060007265310D0A000000C8000020666C6167BF
:1030700032D6C3CEBB0D0A002B4950442C322C341F
:103080003A3248006765742068756D6964697479BF
:10309000320D0A002B4950442C322C343A32540061
:1030A0006765742074656D65726174757265320D43
:1030B0000A000000666C616733D6C3CEBB0D0A0000
:1030C0002B4950442C332C343A3348006765742024
:1030D00068756D6964697479330D0A002B49504431
:1030E0002C332C343A3354006765742074656D6555
:1030F000726174757265330D0A000000C0EBBFAADF
:103100000D0A0000B5DA2564B8F6D7D3C4A3BFE929
:10311000B5C4CEC2B6C8CEAA3A25640D0A0D0A00BF
:10312000B5DA2564B8F6D7D3C4A3BFE9B5C4CAAA33
:10313000B6C8CEAA3A25640D0A0D0A0054313A20C9
:1031400020202020000000004200002048313A20CA
:10315000202020200000000054323A20202020208F
:103160000000000048323A2020202020000000000B
:1031700054333A20202020200000000048333A2019
:103180002020202000000000D1000020340000207A
:103190000D0AC7EBC9D4B5C8A3ACD5FDD4DAD6D8CF
:1031A000C1ACC8C8B5E3BACDB7FECEF1C6F72E2E76
:1031B0002E0D0A0008A0FEF775FF00BFFDF798FD71
:1031C0000028FBD00B48006808B9012000E000206F
:1031D00008490860FFF7B9BA0D0AD6D8C1ACC8C80B
:1031E000B5E3BACDB7FECEF1C6F7B3C9B9A60D0A9D
:1031F00000000000A081224200B587B0012144F206
:103200000500FEF723FA4FF40070ADF81800032014
:103210008DF81A0018208DF81B0006A91F48FDF72D
:10322000ABFD4FF48060ADF8180004208DF81B0052
:1032300006A91A48FDF7A0FD25208DF814000120ED
:103240008DF8150002208DF8160001208DF817006A
:1032500005A8FDF7BDFF4FF4165001900020ADF812
:103260000800ADF80A00ADF80C00ADF810000C2015
:10327000ADF80E0001A90A48FEF702FE0121084838
:10328000FEF796FD012240F225510548FEF7D3FDD9
:1032900040210348FEF774FD07B000BD000801405F
:1032A00000380140000000000000000000000000A5
:1032B000000000003F40000000000000000030005F
:1032C000400030004000000009000BC03D000BC072
:1032D0003D00090018C024407FE0224031800000FA
:1032E000180024C01B000D803240018003801C4068
:1032F00027401C80074000401000600000000000D4
:10330000000000000000000000001F80204040205E
:103310000000402020401F8000000000090006003F
:103320001F80060009000000040004003F80040024
:103330000400000000100060000000000000000019
:103340000400040004000400040000000000004029
:103350000000000000000000002001C0060038004E
:10336000400000001F802040204020401F800000BF
:10337000000010403FC000400000000018C0214085
:103380002240244018400000108020402440244067
:103390001B80000002000D0011003FC00140000032
:1033A0003C80244024402440238000001F8024408F
:1033B00024403440038000003000200027C0380043
:1033C000200000001B802440244024401B8000007B
:1033D0001C0022C0224022401F800000000000008C
:1033E0000840000000000000000000000460000031
:1033F00000000000000004000A001100208040408E
:10340000090009000900090009000000000040400F
:10341000208011000A00040018002000234024002E
:10342000180000001F802040274029401F40000056
:10343000004007C039000F0001C0004020403FC0DD
:10344000244024401B8000001F802040204020405A
:103450003080000020403FC0204020401F800000FE
:1034600020403FC024402E4030C0000020403FC0DC
:1034700024402E00300000000F0010802040224029
:103480003380020020403FC0040004003FC02040C1
:10349000204020403FC0204020400000006020200D
:1034A00020203FC02000200020403FC024400B00CF
:1034B00030C0204020403FC020400040004000C0BD
:1034C0003FC03C0003C03C003FC0000020403FC064
:1034D0000C4023003FC020001F802040204020409F
:1034E0001F80000020403FC024402400180000003E
:1034F0001F802140214020E01FA0000020403FC04D
:103500002440260019C0004018C024402440224016
:1035100031800000300020403FC0204030000000DB
:1035200020003F80004000403F80200020003E00FF
:1035300001C0070038002000380007C03C0007C069
:1035400038000000204039C0060039C0204000008B
:103550002000384007C0384020000000304021C023
:103560002640384020C00000000000007FE04020DE
:1035700040200000000070000C00038000400000AC
:103580000000402040207FE00000000000002000FC
:10359000400020000000000000100010001000108B
:1035A00000100010000000004000000000000000BB
:1035B000000002800540054003C0004020003FC0DD
:1035C00004400440038000000000038004400440E5
:1035D0000640000000000380044024403FC000403B
:1035E0000000038005400540034000000000044047
:1035F0001FC0244024402000000002E00550055078
:103600000650042020403FC00440040003C0004096
:103610000000044027C0004000000000001000101F
:10362000041027E00000000020403FC001400700D8
:1036300004C00440204020403FC000400040000043
:1036400007C0040007C0040003C00000044007C016
:103650000440040003C00040000003800440044014
:1036600003800000041007F00450044003800000B1
:10367000000003800440045007F00010044007C01D
:103680000240040004000000000006400540054020
:1036900004C00000000004001F800440004000003F
:1036A000040007800040044007C0004004000700F9
:1036B00004C0018006000400060001C0070001C02C
:1036C00006000000044006C0010006C004400000DF
:1036D0000410071004E0018006000400000004400C
:1036E00005C00640044000000000000004007BE02C
:1036F00040200000000000000000FFF0000000007B
:10370000000040207BE0040000000000400080003A
:1037100040002000200040000000000000000000E9
:1037200000000000000000000000000000001FCCAE
:10373000000C0000000000000000080030006000E5
:103740000800300060000000022003FC1E20022060
:1037500003FC1E200220000000000E1811043FFF91
:1037600010840C78000000000F0010840F3800C097
:10377000077818840078000000780F8410C41124A2
:103780000E9800E400840008080068007000000043
:10379000000000000000000000000000000007E042
:1037A00018182004400200000000400220041818ED
:1037B00007E00000000000000240024001800FF01E
:1037C00001800240024000000080008000800FF86D
:1037D00000800080008000000001000D000E00004D
:1037E0000000000000000000000000800080008059
:1037F00000800080008000800000000C000C0000B1
:10380000000000000000000000000006001800603A
:103810000180060018002000000007F008081004CE
:103820001004080807F000000000080408041FFC4A
:10383000000400040000000000000E0C101410240E
:10384000104411840E0C000000000C181004110428
:10385000110412880C700000000000E00320042412
:1038600008241FFC0024000000001F98108411048D
:103870001104108810700000000007F0088811047F
:10388000110418880070000000001C00100010FCDB
:1038900013001C001000000000000E3811441084BA
:1038A000108411440E38000000000700088C1044FA
:1038B0001044088807F00000000000000000030C1E
:1038C000030C0000000000000000000000010106E1
:1038D0000000000000000000000000800140022005
:1038E0000410080810040000022002200220022018
:1038F000022002200220000000001004080804102A
:10390000022001400080000000000E001200100C98
:10391000106C10800F00000003E00C1813E4142456
:1039200017C4082807D000000004003C03C41C4052
:10393000074000E4001C000410041FFC11041104E3
:1039400011040E880070000003E00C18100410042D
:10395000100410081C10000010041FFC10041004B8
:103960001004080807F0000010041FFC11041104E3
:1039700017C410040818000010041FFC11041100E3
:1039800017C010000800000003E00C181004100419
:1039900010441C780040000010041FFC10840080BC
:1039A000008010841FFC10040000100410041FFC91
:1039B00010041004000000000003000110011001B9
:1039C0001FFE10001000000010041FFC11040380F3
:1039D0001464181C1004000010041FFC10040004E0
:1039E00000040004000C000010041FFC1F0000FC79
:1039F0001F001FFC1004000010041FFC0C04030037
:103A000000E010181FFC100007F008081004100454
:103A10001004080807F0000010041FFC1084108038
:103A2000108010800F00000007F0081810241024E8
:103A3000101C080A07F2000010041FFC11041100FA
:103A400011C011300E0C000400000E1C1104108473
:103A5000108410441C3800001800100010041FFCD3
:103A6000100410001800000010001FF810040004DB
:103A7000000410041FF8100010001E0011E0001CCC
:103A8000007013801C0010001FC0103C00E01F00DD
:103A900000E0103C1FC000001004180C163401C0D8
:103AA00001C01634180C100410001C00130400FC94
:103AB00013041C00100000000804101C1064108483
:103AC00013041C04101800000000000000007FFE1A
:103AD0004002400240020000000030000C00038061
:103AE0000060001C00030000000040024002400291
:103AF0007FFE0000000000000000000020004000E9
:103B00004000400020000000000100010001000111
:103B10000001000100010001000040004000200001
:103B20000000000000000000000000980124014493
:103B30000144014400FC000410001FFC0088010443
:103B4000010400880070000000000070008801047B
:103B500001040104008800000000007000880104D6
:103B6000010411081FFC0004000000F80144014496
:103B70000144014400C800000000010401040FFCDE
:103B80001104110411001800000000D601290129B8
:103B9000012901C90106000010041FFC0084010076
:103BA0000100010400FC000400000104190419FCD8
:103BB00000040004000000000000000300010101F7
:103BC000190119FE0000000010041FFC0024004031
:103BD00001B4010C010400000000100410041FFCDB
:103BE0000004000400000000010401FC01040100C5
:103BF00001FC0104010000FC010401FC008401003F
:103C00000100010400FC0004000000F801040104AC
:103C10000104010400F80000010101FF0085010416
:103C2000010400880070000000000070008801049A
:103C30000104010501FF00010104010401FC0084ED
:103C40000104010001800000000000CC01240124D7
:103C5000012401240198000000000100010007F880
:103C60000104010400000000010001F80004000448
:103C70000004010801FC0004010001800170000C37
:103C8000001001600180010001F0010C003001C052
:103C90000030010C01F0010000000104018C0074EF
:103CA0000170018C01040000010101810171000E0D
:103CB000001801600180010000000184010C013442
:103CC00001440184010C000000000000000000001D
:103CD00001003EFC40024002000000000000000025
:103CE000FFFF0000000000000000400240023EFC18
:103CF0000100000000000000000060008000800063
:103D000040004000200020000000000000000000F3
:103D100000000000000000000000000000000000A3
:103D20000000000000000000000000000000000093
:103D300000000000000000000000000F80380FFEAF
:103D4000380F803800000000000000000000000074
:103D50000000000000000100000600000C00003818
:103D600000003100000600000C00003800003000A8
:103D7000000000000000000061800067F807F98083
:103D80000061800061800061800061800067F80749
:103D9000F98000618000000000000000000001C008
:103DA000E003E0F00630080418081FFFFE040E08C8
:103DB0000787F00381E000000000000001F000062A
:103DC0000C00040408060C7001F9C0000E00003B52
:103DD000E000EC18070808040C180003E0000000DD
:103DE0000001E00007F003F818041C080417080796
:103DF000E1D003C0E00023B0003C08002008000030
:103E0000100000000000000100003100003200003E
:103E10001C00000000000000000000000000000086
:103E20000000000000000000000000000000000092
:103E300000000000000000007F0001FFC00780F0CC
:103E40000C001810000420000200000000000020F8
:103E500000021000040C00180780F001FFC0007F72
:103E60000000000000000000000000000000000052
:103E7000000000004200006600006600003C0000F8
:103E8000180003FFC0001800003C00006600006638
:103E900000004200000000000800000800000800C8
:103EA00000080000080001FFC00008000008000032
:103EB00008000008000008000000000000010000E9
:103EC0003100003200001C00000000000000000073
:103ED00000000000000000000000000000000000E2
:103EE00008000008000008000008000008000008A2
:103EF00000000800000800000800000800000000A2
:103F00000000000000000000380000380000380009
:103F100000000000000000000000000000000000A1
:103F20000000000000000000000600001C000070FF
:103F3000000180000E0000380000C0000700001CD7
:103F40000000300000000000000000007F8001FF42
:103F5000E00380700600180400080400080600183A
:103F600003807001FFE0007F80000000000000007F
:103F7000000001000801000801000803FFF807FF26
:103F8000F800000800000800000800000000000021
:103F900000000001C03802C0580400980401180451
:103FA0000218040418061C1803F81801E0F80000B1
:103FB0000000000000000001C0E003C0F0040008A1
:103FC00004080804080806180803F41801E7F000BC
:103FD00001E0000000000000000000000300000DF0
:103FE0000000110000610000810803010807FFF8CC
:103FF0000FFFF800010800010800000000000000A9
:1040000000E007FCD0060808061008061008061095
:1040100008061838060FF00607C000000000000070
:10402000000000003F8001FFE00384300208180414
:104030001008041008041008071810030FF00007F8
:10404000C000000000000000000003C000070000E6
:104050000600000600F80607F806180006E000074C
:10406000000006000000000000000001E1E003F78E
:10407000F0063410041808041808040C08040C088E
:1040800006161803F3F001C1E00000000000000074
:10409000F80003FC30030638040208040208040296
:1040A000080404100308F001FFC0007F00000000B6
:1040B0000000000000000000000000000000000000
:1040C00070380070380070380000000000000000F8
:1040D00000000000000000000000000000000000E0
:1040E00000000000301A00301C000000000000003A
:1040F00000000000000000000000000000000008B8
:1041000000001400002200004100008080010040F7
:104110000200200400100800080000000000000059
:1041200021000021000021000021000021000021C9
:1041300000002100002100002100002100000000FB
:104140000000000000000800080400100200200128
:1041500000400080800041000022000014000008A0
:104160000000000000000003C00004C000040000C4
:10417000080038080F380808380810000C3000070D
:10418000E00003C000000000000000003F8000FFCE
:10419000E0038070020F1006708804C08804830852
:1041A000047F8802C09003012000FE400000080048
:1041B00000180001F8003E0801C20007020007E2F3
:1041C0000000FE00001FC80001F8000038000008D1
:1041D00004000807FFF807FFF804080804080804AB
:1041E000080804080806180803F41801E7F000019D
:1041F000E0000000000000003F8001FFE00380704D
:104200000200180400080400080400080400100656
:1042100000200780C000000004000807FFF807FF27
:10422000F804000804000804000804001802001044
:1042300003807001FFE0007F800000000400080799
:10424000FFF807FFF8040808040808040808040831
:1042500008043E0804000806001801006000000081
:1042600004000807FFF807FFF80408080408000422
:104270000800040800043E0006000006000001805B
:1042800000000000000000003F8001FFE00380709C
:104290000600180400080402080402080203F007DC
:1042A00083F000020000020004000807FFF807FF87
:1042B000F8040808000800000800000800000800D2
:1042C00004080807FFF807FFF804000800000000D2
:1042D000000004000804000804000807FFF807FFB6
:1042E000F8040008040008040008000000000000B2
:1042F00000000000000600000700000104000104A7
:10430000000104000307FFFE07FFFC040000040097
:104310000004000004000807FFF807FFF8040C0879
:10432000001800003E0004C7800503C80600F8041A
:10433000003804001800000804000807FFF807FF11
:10434000F804000800000800000800000800000849
:1043500000000800001800006000000004000807CA
:10436000FFF807800807FC00007FC00003F8000783
:10437000C000780007800807FFF807FFF80400086E
:1043800004000807FFF807000803C00000E0000071
:104390003800001E000007000001C00400F007FF05
:1043A000F8040000000000007F8001FFE00380703F
:1043B0000600180400080400080600180300300175
:1043C000FFE0007F8000000004000807FFF807FFFF
:1043D000F8040408040400040400040400040400B5
:1043E000060C0003F80001F00000000000000000CF
:1043F0007F8001FFE00380700600880400880400CD
:10440000C806003C03003E01FFE6007F8400000078
:1044100004000807FFF807FFF80408080408000470
:104420000C00040F00040BC00610F003F03801E08C
:104430000800000800000001E0F803F0300630102A
:10444000041808041808040C08040C0802061802D2
:1044500007F00781E0000000018000060000040072
:104460000004000004000807FFF807FFF804000834
:1044700004000004000006000001800004000007A2
:10448000FFE007FFF004001800000800000800002B
:104490000800000800000804001007FFE004000006
:1044A00004000006000007E00007FE00041FE00013
:1044B00001F80000380001E0043E0007C0000600DB
:1044C0000004000004000007E00007FFC0041FF81C
:1044D0000007C007F80007FF80043FF80007C0048A
:1044E000F8000700000400000000000400080600B7
:1044F0001807C07805F1C8003E00001F800463E87B
:104500000780F806001804000800000004000006F8
:10451000000007800007E008047C08001FF800077F
:10452000F800180804E00807000006000004000076
:104530000000000100080600380400F80403E80445
:104540000F08047C0805F00807C0080700180400DD
:1045500060000000000000000000000000000000FB
:104560000000003FFFFE2000022000022000022089
:10457000000220000200000000000000000008000F
:104580000007000000C0000038000006000001C065
:1045900000003000000E00000100000000000000DC
:1045A0000000200002200002200002200002200063
:1045B000023FFFFE000000000000000000000000BD
:1045C00000000000000000000008000010000030A3
:1045D0000000200000300000100000080000000073
:1045E00000000000000001000001000001000001C7
:1045F00000000100000100000100000100000100B6
:1046000000010000010000010000000000000000A7
:10461000002000002000001000001000000000003A
:10462000000000000000000000000000000000008A
:1046300000F00019F8001B180022080026080024CA
:1046400008002410003FF8001FF8000008000018C0
:1046500000000004000007FFF80FFFF0001818002A
:104660001008002008002008003018001FF0000F7C
:10467000C00000000000000007C0001FF00018305C
:10468000002008002008002008003C08001C100042
:1046900000600000000000000000000007C0001FD4
:1046A000F00038180020080020080020080410102E
:1046B00007FFF80FFFF000001000000000000000EE
:1046C00000000007C0001FF0001230002218002276
:1046D00008002208003208001E10000E2000000012
:1046E00000000000200000200800200801FFF8035F
:1046F000FFF8062008042008042008072000030013
:104700000000000000000000000E000E6E001FF30D
:104710000031B10020B10020B1003191001F130021
:104720002E1E00200E00300000000004000807FFCD
:10473000F80FFFF8001008002000002000002008FB
:10474000003FF8001FF80000080000000000000013
:104750000000002008002008002008063FF8063F5F
:10476000F800000800000800000800000000000039
:104770000000000000000000030000030020010012
:104780002001002003063FFE063FFC000000000061
:104790000000000000000004000807FFF80FFFF809
:1047A000000188000300002FC00038F80020380006
:1047B00020080000080000000000000000000400C5
:1047C0000804000804000807FFF80FFFF8000008BD
:1047D00000000800000800000000000000200800A1
:1047E0003FF8003FF8001008002000003FF8003FAD
:1047F000F8001008002000003FF8003FF800000813
:10480000000000002008003FF8003FF800100800FA
:104810001000002000002008003FF8001FF80000F2
:10482000080000000000000007C0000FF000183072
:104830000030080020080020080030080018300070
:104840000FF00007C0000000000000002001003F42
:10485000FF003FFF00101100200900200800200881
:10486000003038001FF0000FC00000000000000002
:1048700007C0001FF00038180020080020080020A2
:1048800009001011001FFF003FFF000001000000A1
:10489000002008002008002008003FF8003FF80032
:1048A0000808001008002008002000003000003038
:1048B00000000000000000000000000C78001E183E
:1048C00000330800230800210800218800219800F7
:1048D00030F00038600000000000000020000020E0
:1048E0000000200000FFF003FFF80020080020086F
:1048F0000020080000300000000000000000000060
:104900002000003FF0007FF80000180000080000C1
:1049100008002010003FF8007FF0000010000000A9
:10492000000000002000003000003C00003F80003C
:1049300023F0000078000070002380003C0000306D
:1049400000002000002000003C00003FE00023F8B1
:104950000000E0002700003E00003FE00021F800DA
:1049600001E0003E000020000000000020080020C0
:1049700008003838003E680027800003C8002CF883
:104980000038380020180020080000000000000057
:104990002000003003003C01003F830023EC0000B6
:1049A00070002380003C0000200000200000000078
:1049B0000000000000000038080020380020F80047
:1049C00023E8002F88003E08003808002018000067
:1049D0007000000000000000000000000000000067
:1049E0000000000008000014001FF7FC3000062043
:1049F00000020000000000000000000000000000B5
:104A000000000000000000000000FFFFFF000000A9
:104A10000000000000000000000000000000000096
:104A200000002000023000061FF7FC001400000800
:104A30000000000000000000000000000000000076
:104A4000000000180000600000400000400000204E
:104A500000001000000800000400000400000C002A
:104A60000010000008200620407E31800004708481
:104A70004488489050A043FF50A0489044887084D8
:104A8000000400000408040C0408FFF004100411E2
:104A90000006FFF8000000007FFC00000000FFFFA0
:104AA00000000000020022002A0026FFA2927E924F
:104AB0002292229222927E92A29226FF2A00220025
:104AC00002000000000000000FF00820082008206D
:104AD0000820FFFF08200820082008200FF0000011
:104AE000000000002410246025807FFFC500448062
:104AF00000204420332000200020FFFF0040004021
:104B000000400000082008220841FFFE088009013B
:104B10001001110211C21134FF0811141162118128
:104B200010010000444B000800000020DC000000E1
:104B3000EC200008204C0008DC0000200C0C0000D9
:104B4000FC20000800004370706D3D000000000074
:104B50000000000000000000000000006C696768B1
:104B6000743D000000000000000000000000000094
:104B70000000000000000000000000000000000035
:104B800000000000000000000043000000000000E2
:104B90005400000000480000000049000000000030
:104BA000004553504B4A445131004553504B4A4401
:104BB0005132004553504B4A4451330045535047FE
:104BC0004A44513100455350474A445132004553FD
:104BD00050474A4451330000000000010203040121
:104BE000020304060708090204060800000000008A
:104BF000000000000000000000000000000000FFB6
:104C000001860000000000790000000000000000A4
:104C10000000000000000000000000000000000094
:0400000508000131BD
:00000001FF
