:030000000214B136
:0C14B100787FE4F6D8FD7581640214F821
:041A4B007F02DFFE39
:011A4F002274
:081A3A007F127EEBDEFEDFFCF3
:011A42002281
:1019ED00AD07AC06ED1DAE0470011C4E6005121A5C
:0419FD003A80F12219
:101A0100AD07AC06ED1DAE0470011C4E6005121A47
:041A11004B80F122F3
:100C2A004C43452053545544494F004448543131AC
:100C3A0020546573742050726F6772616D00323090
:100C4A0031382D30332D3230000D0A0057656C6370
:100C5A006F6D6520746F204C4345205354554449A9
:100C6A004F2C20506C656173652077616974207719
:100C7A0068696C65207765206172652067657474A0
:100C8A00696E672074686520646576696365207299
:100C9A00656164790D0A004F4B004F4B2C53756305
:100CAA00636565642045737461626C697368206367
:100CBA006F6E6E656374696F6E207769746820451C
:100CCA005350383236360D0A006E6F206368616EF3
:100CDA006765004F4B2C45535038323636206861D1
:100CEA0073206265656E20736574206173204150BC
:100CFA002B53746174696F6E204D6F64650D0A0021
:100D0A004F4B2C5375636365656420657374616228
:100D1A006C69736820636F6E6E656374696F6E20A9
:100D2A007769746820576946692041500D0A004363
:100D3A004F4E4E4543544544004F4B2C4553503873
:100D4A00323636B3C9B9A6C1ACBDD3546370B7FE47
:100D5A00CEF1C6F70D0A00436F6E67726174756C47
:100D6A006174696F6E732C2045766572797468694F
:100D7A006E6720697320736574207570212054434F
:100D8A00502073657665723A3139322E3136382EF3
:100D9A00342E312C20506F72743A203530303000A6
:100DAA00CAAAB6C8BACDCEC2B6C8C8E7CFC20D0A5B
:100DBA000054454D503A00430048554D3A0025200D
:100DCA0000325400324800C1ACBDD3B3C9B9A60D34
:100DDA000A0053454E44204F4B0041542B4349507F
:100DEA0053454E443D2564003E0041540D0A0041DE
:100DFA00542B43574D4F44453D310D0A0041542B66
:100E0A0043574A41503D2250555A484F4E47222C8B
:100E1A002270757A686F6E67313638220D0A004182
:100E2A00542B43494653520D0A0041542B4349500F
:100E3A0053544152543D22544350222C22313932C8
:100E4A002E3136382E3139312E34222C3830383082
:100E5A000D0A0041542B43495053454E443D360D2B
:100E6A000A0068656C6C6F210D0A0041542B4349D6
:100E7A00505345525645523D312C353030300D0ACB
:100E8A000041542B4349504D55583D310D0A0041FC
:100E9A00542B5253540D0A0041542B434950534585
:100EAA004E443D340D0A00436F6D6D616E642045FA
:100EBA0078656375746564210D0A0068656C6C6FEA
:100ECA00216C6564312C676F6F640D0A0068656C6C
:100EDA006C6F216C6564322C676F6F640D0A006851
:100EEA00656C6C6F216C6564332C676F6F640D0AD7
:100EFA000068656C6C6F2172656C312C676F6F646A
:100F0A000D0A0068656C6C6F2172656C322C676F14
:100F1A006F640D0A0068656C6C6F2172656C332C06
:070F2A00676F6F640D0A0000
:101937000130000831325400000000000008223254
:071947004800000000000051
:100F3100759103759203E4F5B2F5B1F5B4F5B3F526
:100F4100CAF5C9C2C31213837FFF1219BF7F647E22
:100F5100001219EDE4FF1219BF7F647E001219ED32
:100F61001219D77BFF7A0C792AE4FD7F191214221A
:100F71007BFF7A0C79357D037F081216337BFF7A6C
:100F81000C79487D077F221216337F647E00121987
:100F9100ED7F647E00121A011218C1D2AC75AF0147
:100FA100D2AF7FE87E031219ED7F647E00121A0131
:100FB1007B017A00790012195C7BFF7A0C7953125C
:100FC100195C7BFF7A0C795612195C121A151219E9
:100FD1008140127BFF7A0D79F41218967FF47E011D
:100FE1001219ED80E9121A157BFF7A0C79A41219F6
:100FF1005C7BFF7A0C79D3121987C0D0121981D08A
:10100100F072F740127BFF7A0D79F91218967FF48E
:101011007E011219ED80DA1219815013121A157B13
:10102100FF7A0E79991218967FF47E011219ED124A
:101031001A157BFF7A0C79DD12195C1219814012A5
:101041007BFF7A0E79071218967FD07E071219ED71
:1010510080E9C2C9121A157BFF7A0D790A12195C4F
:101061007BFF7A0D793912198740127BFF7A0E794D
:10107100341218967FA07E0F1219ED80E37BFF7A60
:101081000D794312195C7BFF7A0D796112195C129B
:101091001A157F987E081219ED755000755100756B
:1010A100522A7B007A00792D1215BF7BFF7A0D79C8
:1010B100AA12195C7B007A00792D12195C7BFF7AE8
:1010C1000C795312195C7B007A00792A12195C7B26
:1010D100FF7A0D79BB7D057F081216337B007A00FC
:1010E100792D7D057F281216337BFF7A0D79C17D1D
:1010F100057F341216337BFF7A0D79C37D057F504E
:101101001216337B007A00792A7D057F6E12163321
:101111007BFF7A0D79C87D057F7A12163378317C91
:10112100007D007BFF7A0D79CB12133078227C0091
:101131007D007BFF7A0D79CE121330755000755109
:101141000075522D7B007A00793112174D755000D0
:1011510075510075522A7B007A00792212174D7B56
:10116100FF7A0D79D112195C7B007A00793112195D
:101171005C7BFF7A0C795312195C7B007A0079222F
:1011810012195C121A237BFF7A0C795312195C7BBA
:10119100FF7A0D79DC12198740427BFF7A0E79A222
:1011A1001218967F647E001219ED7B007A00793166
:1011B1001218967FF47E011219ED7BFF7A0E79A247
:1011C1001218967F647E001219ED7B007A00792255
:1011D1001218967FF47E011219ED80B3121A157F51
:0911E100707E171219ED02109343
:061697008B088A09890A94
:10169D00753CFF753D0D753EE4ED2402F540E43CCF
:1016AD00F53F7B007A00790B12092A7BFF7A0D79C1
:1016BD00F212198740127B007A00790B1218967F6F
:1016CD00E87E031219ED80E37BFF7A0D79DC1219A8
:1016DD00874012AB08AA09A90A1218967FE87E0363
:0516ED001219ED80E37D
:0116F20022D5
:061981007BFF7A0C79A146
:101987008B4D8A4E894F8B538A5489557B017A0038
:0E199700790012153DE94A4B6002D322C322AB
:0D1A15007F32900000E4F0A3DFFCE4F53028
:011A220022A1
:0300230002182F91
:10182F00C0E0C083C082C0D0C2AC30981CC29874D4
:10183F00002530F582E43400F583E599F00530E5B5
:10184F0030D394324003753000309902C299D2AC34
:09185F00D0D0D082D083D0E03259
:030043000217EEB3
:1017EE00C0E0C083C082C0D075AF00E59A30E01D66
:1017FE00539AFE74002530F582E43400F583E59BA0
:10180E00F00530E530D394324003753000E59A3060
:10181E00E103539AFD75AF01D0D0D082D083D0E0D2
:01182E003287
:1018C10053877F759850438E40538EFE53890F7511
:1018D1008B20758DFEC2ABD28E759A50438E0475E6
:0918E100D7D875D6FF438E102202
:081A43008F993099FDC2992230
:10195C008B4D8A4E894FAB4DAA4EA94F1211EA609E
:10196C0013054FE54F7002054E14F91211EAFF12E0
:05197C001A4380E22285
:0B1A2F008F9BE59A30E1FB539AFD22EB
:101896008B4D8A4E894FE4F5AFAB4DAA4EA94F1238
:1018A60011EA6013054FE54F7002054E14F9121147
:0B18B600EAFF121A2F80E275AF01223A
:0D194E00015E00015F000560000000000068
:1017A500E4F55C755E02209707AF5E055EEF70F6A7
:1017B5007F1E7E00121A01E4F55F309703755F0105
:1017C500755E02309707AF5E055EEF70F6E55E6405
:1017D500016013E55D25E0F55DE55F425D055CE5CE
:0817E5005CC3940840BDAF5D38
:0117ED0022D9
:1016F300C2977F127E001219EDD2977F287E0012C7
:101703001A01D297209742755E02209707AF5E05B4
:101713005EEF70F6755E02309707AF5E055EEF70A1
:10172300F61217A58F601217A58F611217A58F6286
:101733001217A58F631217A58F64D29785645BE593
:0917430060256125622563F55F54
:01174C00227A
:100003008B558A5689571216F3AB58AA59A95AE544
:0F00130060121230AB55AA56A957E5620212309F
:0615BF008B4D8A4E894F9E
:1015C500755800755900755A547B007A0079531285
:1015D5000003E55375F00A842430AB4DAA4EA94F9C
:1015E500121230E55375F00A84E5F02430AB4DAAAC
:1015F5004EA94F900001121242900002E4121242CD
:10160500E55475F00A842430AB50AA51A952121240
:1016150030E55475F00A84E5F02430AB50AA51A9A1
:0E16250052900001121242900002E4021242A2
:0B1A2300E4FF7E057860E4F608DEFCBE
:011A2E002295
:100046000000000000000000002F00000000070074
:10005600070000147F147F1400242A7F2A120062EE
:10006600640813230036495522500000050300009A
:1000760000001C224100000041221C000014083E22
:1000860008140008083E0808000000A060000008E8
:10009600080808080000606000000020100804023C
:1000A600003E5149453E0000427F400000426151FA
:1000B6004946002141454B31001814127F10002794
:1000C60045454539003C4A49493000017109050357
:1000D60000364949493600064949291E0000363688
:1000E60000000000563600000008142241000014EB
:1000F60014141414000041221408000201510906C8
:1001060000324959513E007C1211127C007F494948
:100116004936003E41414122007F4141221C007F79
:1001260049494941007F09090901003E4149497A87
:10013600007F0808087F0000417F41000020404101
:100146003F01007F08142241007F40404040007F6D
:10015600020C027F007F0408107F003E4141413EB1
:10016600007F09090906003E4151215E007F0919F9
:1001760029460046494949310001017F0101003FF6
:100186004040403F001F2040201F003F4038403F76
:1001960000631408146300070870080700615149DA
:1001A600454300007F41410000552A552A5500006D
:1001B60041417F00000402010204004040404040EB
:1001C600000001020400002054545478007F484483
:1001D600443800384444442000384444487F0038BA
:1001E6005454541800087E0901020018A4A4A47CE3
:1001F600007F080404780000447D400000408084AD
:100206007D00007F102844000000417F4000007CF4
:1002160004180478007C0804047800384444443800
:1002260000FC242424180018242418FC007C08044C
:10023600040800485454542000043F444020003C25
:100246004040207C001C2040201C003C4030403CAC
:10025600004428102844001CA0A0A07C004464543C
:100266004C4414141414141400008000F03F884009
:100276008644884EC84110780000F00700400040D0
:10028600FC3F00000000FE8484848482828282C057
:10029600800020203F20202020203F2020203020CA
:1002A6001413927E325292007C4444447C00010135
:1002B60000FF494949494949FF000000B897929013
:1002C60094B810007F4848447420FF0A0A4A8A7F7F
:1002D60000003F444442722000000000000000007D
:1002E6000000000000000000000000F80000000010
:1002F600000000333000000000100C06100C060051
:10030600000000000000000040C07840C0784000B7
:10031600043F04043F040400007088FC0830000019
:10032600001820FF211E0000F008F000E018000071
:1003360000211C031E211E0000F00888700000002A
:100346001E2123241927211010160E00000000007C
:100356000000000000000000000000E01804020099
:10036600000000071820400000020418E00000000A
:100376000040201807000000404080F08040400008
:100386000202010F01020200000000F0000000005E
:100396000101011F01010100000000000000000032
:1003A60080B07000000000000000000000000000A7
:1003B6000001010101010101000000000000000030
:1003C60000303000000000000000000080601804CB
:1003D600006018060100000000E010080810E000A8
:1003E600000F102020100F00001010F80000000071
:1003F6000020203F202000000070080808887000B8
:100406000030282422213000003008888848300037
:100416000018202020110E000000C02010F8000057
:1004260000070424243F240000F8088888080800F0
:100436000019212020110E0000E010888818000005
:10044600000F112020110E0000380808C8380800D7
:100456000000003F00000000007088080888700057
:10046600001C222121221C0000E010080810E000D8
:100476000000312222110F00000000C0C000000061
:100486000000003030000000000000800000000086
:10049600000080600000000000008040201008007E
:1004A6000001020408102000404040404040400047
:1004B6000404040404040400000810204080000022
:1004C6000020100804020100007048080808F00027
:1004D6000000003036010000C030C828E810E000F7
:1004E6000718272423140B000000C038E000000082
:1004F600203C23020227382008F8888888700000EC
:10050600203F202020110E00C030080808083800BF
:10051600071820202010080008F808080810E00036
:10052600203F202020100F0008F88888E8081000D7
:10053600203F20202320180008F88888E8081000AB
:10054600203F200003000000C030080808380000E3
:1005560007182020221E020008F808000008F808E4
:10056600203F210101213F20000808F8080800006B
:100576000020203F2020000000000808F80808009E
:10058600C08080807F00000008F888C02818080016
:10059600203F20012638200008F80800000000004F
:1005A600203F20202020300008F8F800F8F8080046
:1005B600203F003F003F200008F830C00008F80840
:1005C600203F200007183F00E01008080810E00050
:1005D6000F10202020100F0008F808080808F00067
:1005E600203F210101010000E01008080810E0008A
:1005F6000F18242438504F0008F88888888870001F
:10060600203F2000030C30200070880808083800BE
:100616000038202121221C00180808F808081800B4
:100626000000203F2000000008F808000008F80835
:10063600001F202020201F000878880000C83808E6
:10064600000007380E010000F80800F80008F8005E
:10065600033C0700073C03000818688080681808F8
:1006660020302C03032C30200838C800C838080076
:100676000000203F2000000010080808C8380800C5
:100686002038262120201800000000FE0202020069
:100696000000007F40404000000C30C00000000019
:1006A600000000010638C00000020202FE00000041
:1006B600004040407F0000000000040202020400E7
:1006C6000000000000000000000000000000000024
:1006D600808080808080808000020204000000000C
:1006E6000000000000000000000080808080000004
:1006F6000019242222223F2008F8008080000000F2
:10070600003F112020110E000000008080800000B4
:10071600000E112020201100000000808088F800C3
:10072600000E112020103F200000808080800000F5
:10073600001F222222221300008080F08888881859
:100746000020203F20200000000080808080800064
:10075600006B94949493600008F8008080800000F9
:10076600203F210000203F200080989800000000D4
:100776000020203F20200000000000809898000004
:1007860000C08080807F000008F800008080800024
:10079600203F24022D302000000808F80000000049
:1007A6000020203F20200000808080808080800004
:1007B600203F20003F20003F808000808080000096
:1007C600203F210000203F20000080808080000024
:1007D600001F202020201F00808000808000000055
:1007E60080FFA12020110E00000000808080800084
:1007F600000E112020A0FF80808080008080800075
:1008060020203F21200001000000808080808000A1
:100816000033242424241900008080E08080000016
:100826000000001F20200000808000000080800063
:10083600001F202020103F208080800000808080C4
:1008460000010E3008060100808000800080808054
:100856000F300C030C300F00008080008080800079
:100866000020312E0E3120008080800000808080A4
:1008760080818E7018060100008080808080800054
:100886000021302C2221300000000000807C020272
:1008960000000000003F404000000000FF00000094
:1008A60000000000FF0000000002027C8000000043
:1008B6000040403F0000000000060101020204045F
:0808C60000000000000000002A
:05191100F583E493FFE3
:101916007E08D2C4C2C7AD061EED6014EF30E704E0
:10192600D2C68002C2C6D2C7C2C7EF25E0FF80E694
:01193600228E
:0D18680024B0FF1218757F011218757F1053
:101875007E08C2C4C2C7AD061EED6014EF30E70492
:10188500D2C68002C2C6D2C7C2C7EF25E0FF80E636
:011895002230
:10002600AC07ED24B0FF121875EC54F0C4540F441D
:0C00360010FF121875EC540FFF02187533
:0219BF00AC0773
:1019C100E4FBEB121868E4FAAF041219160ABA80A4
:0519D100F70BBB08ED5F
:0119D60022EE
:1019D700E4FCEC121868E4FBE4FF1219160BBB8059
:0519E700F70CBC08ED47
:0119EC0022D8
:1019A500EF4E60157D377C05ED1DAA0470011C4ABC
:0919B50070F6EF1F70EA1E80E7D6
:0119BE002206
:10138300D2C7C2C57F327E001219A5D2C57FAE1265
:101393001875E4FF1218707F401218757F811218B8
:1013A300757FCF1218757FA11218757FC812187533
:1013B3007FA61218757FA81218757F3F1218757FC4
:1013C300D3121875E4FF1218757FD51218757F8034
:1013D3001218757FD91218757FF11218757FDA12FA
:1013E30018757F121218757FDB1218757F4012185B
:1013F300757F201218757F021218757F8D1218756C
:101403007F141218757FA41218757FA61218757FA2
:0F141300AF121875E4FF1219BFE4FDFF020026A7
:0A1633008F4D8D4E8B4F8A50895168
:10163D00E4F552FCF553AB4FAA50A9518553827571
:10164D008300121203604224E0F552E54DD3947EDF
:10165D004005E4F54D054EAD4EAF4D120026E4FCB0
:10166D0075F006E552A42446F582E5F03400F583C5
:10167D00E5822CF582E435831219110CBC06E17458
:09168D0006254DF54D055380AD15
:011696002231
:0A1422008F4D8D4E8B4F8A5089517B
:10142C00E4F552FCF553AB4FAA50A9518553827584
:10143C008300121203606D24E0F552E54DD39478CD
:10144C004005E4F54D054EAD4EAF4D120026E4FCC3
:10145C0075F010E552A42CF582E435F0F583E582A5
:10146C0024DEF582E58334021219110CBC08E1E587
:10147C004E04FDAF4D120026E4FC75F010E552A4AD
:10148C002CF582E435F0F583E58224E6F582E583DC
:10149C0034021219110CBC08E17408254DF54D05E8
:0414AC0053021432A1
:0114B0002219
:1014BD00020F31E493A3F8E493A34003F68001F205
:1014CD0008DFF48029E493A3F85407240CC8C33330
:1014DD00C4540F4420C8834004F456800146F6DFFF
:1014ED00E4800B0102040810204080901937E47E3F
:1014FD00019360BCA3FF543F30E509541FFEE493F4
:10150D00A360010ECF54C025E060A840B8E493A3BA
:10151D00FAE493A3F8E493A3C8C582C8CAC583CAE5
:10152D00F0A3C8C582C8CAC583CADFE9DEE780BE9D
:01195B00008B
:1011EA00BB010689828A83E0225002E722BBFE0203
:0911FA00E32289828A83E4932236
:10120300BB010CE58229F582E5833AF583E02250A0
:1012130006E92582F8E622BBFE06E92582F8E222EA
:0D122300E58229F582E5833AF583E4932204
:10123000BB010689828A83F0225002F722BBFE019D
:02124000F32297
:10124200F8BB010DE58229F582E5833AF583E8F0E2
:10125200225006E92582C8F622BBFE05E92582C88E
:02126200F22276
:1008CE00E548243CF8E60548227839300702783CA2
:1008DE00E475F00112134D0211EA2000EB7F2ED2C7
:1008EE00008018EF540F2490D43440D4FF30040B02
:1008FE00EF24BFB41A0050032461FFE549600215CE
:10090E0049054CE54C7002054B30070D7839E475FE
:10091E00F00112134DEF0212300218EA7403D207DF
:10092E008003E4C207F5488B398A3A893BE4F549DE
:10093E00F54BF54CE54960077F2012090980F575E6
:10094E004AFFC201C200C202C203C205C206C208E9
:10095E001208D7FF700D3007057F0012091AAF4C31
:10096E00AE4B22B4255FC2D5C2041208D7FF24D0E5
:10097E00B40A00501A75F00A784930D50508B6FF4A
:10098E000106C6A426F620D5047002D20380D9240F
:10099E00CFB41A00EF5004C2E5D204020B1AD201F2
:1009AE0080C6D20080C0D20280BCD2D580BAD20519
:1009BE0080B47F201209092002077401B549004056
:1009CE00F11208CEFF120909020942D208D206809E
:1009DE00951208CEFB1208CEFA1208CEF94A4B70C9
:1009EE000679EB7A0B7BFF20022EE549602A7E000A
:1009FE008E8275830012120360060EEE654A70F049
:100A0E00C2D5EBC0E0EAC0E0E9C0E0EE120B61D067
:100A1E00E0F9D0E0FAD0E0FB1211EAFF60AAEBC0D9
:100A2E00E0EAC0E0E9C0E0120909D0E02401F9D003
:100A3E00E03400FAD0E0FBE54A0460DCD54AD98008
:100A4E00877BFF7A0B795DD202809C7910800279C8
:100A5E0008C206C2088008D2D5790A8004790AC273
:100A6E00D5E54A047002F54AE4FAFDFEFF1208CEFF
:100A7E00FC7B082001131208CEFD7B1030000A12F9
:100A8E0008CEFE1208CEFF7B20EC3382D592D550D5
:100A9E0013C3E43000069FFFE49EFEE42001039D95
:100AAE00FDE49CFCE4CBF8C201EC700CCFCECDCCB7
:100ABE00E824F8F870F38017C3EF33FFEE33FEED42
:100ACE0033FDEC33FCEB33FB994002FB0FD8E9EB23
:100ADE00300105F8D0E0C448B201C0E00AEC4D4E3A
:100AEE004F78207B0070C2EAB54A0040BCC0E012CD
:100AFE000B63D0F0D0E0200104C4C0E0C4B201C04A
:100B0E00F01208F2D0F0D5F0EB02094212135D0993
:100B1E00DF530A595809B04C09AC420A5D4F0A65B9
:0F0B2E00440A654909C5430A6B550A4F460A4FE9
:100B3D00450A4F470C0B5009B42D09B82E09DB2B74
:100B4D0009BC2309D9200BF42A097448000009D3E4
:100B5D003F3F3F00790AA2D5200314300509B91093
:100B6D00020404B9080104A2D52006025001042094
:100B7D0002689202B549005034C0E07F203003195D
:100B8D007F30A20272067205500F120BBAC202C25A
:100B9D0006C205C2087F30800F300503E9C0E012A0
:100BAD000909300503D0E0F9D0E0B549CC3005177F
:100BBD007F30B9100C1209097F583004077F7880F7
:100BCD0003B908031209093002057F2D0209097FB7
:100BDD00202008F87F2B2006F322920280CF286E6A
:100BED00756C6C2900D2011208CE3001F8C2017863
:100BFD004930D50108F60209742D504349581208A1
:100C0D00CE2403B405004001E4900C06931208FABB
:0D0C1D00743A1208FAD203754904020A590C
:10174D008B4D8A4E894F8B538A548955AB4D054F1E
:10175D00E54FAA4E7002054E14F91211EA70ED74A0
:10176D00FF254FF54F74FF354EF54EAB500552E545
:10177D0052AA517002055114F91211EAFFAB4D0531
:10178D004FE54FAA4E7002054E14F9EF121230704C
:08179D00DAAB53AA54A955224E
:10126400E709F60870FA8046E709F20870FA803E4A
:1012740088828C83E709F0A370FA807EE309F6087C
:1012840070FA8076E309F20870FA806E88828C83A3
:10129400E309F0A370FA806289828A83E0A3F608E6
:1012A40070FA805689828A83E0A3F20870FA804A31
:1012B40080D280FA80C680D4806580F2803180102C
:1012C40080A680EA809A80A880DA80E280CA803191
:1012D40089828A83ECFAE493A3C8C582C8CCC58307
:1012E400CCF0A3C8C582C8CCC583CC70E9800D8975
:1012F400828A83E493A3F60870F9ECFAA9F0EDFB73
:101304002289828A83ECFAE0A3C8C582C8CCC5834B
:10131400CCF0A3C8C582C8CCC583CC70EA80DD8973
:10132400828A83E493A3F20870F980CE88F0ED24D6
:1013340002B4040050C4F582EB2402B4040050BA91
:0913440023234582239012B473A7
:10153D008B508A518952AB53AA54A9551211EA60A6
:10154D0063AB50AA51A9521211EA605F85535685BB
:10155D0054578555588B598A5A895BAB56AA57A94A
:10156D00581211EAFF6023AB59AA5AA95B1211EA6E
:10157D006F7017042558F558E43557F55774012544
:10158D005BF55BE4355AF55A80D1AB56AA57A9588D
:10159D001211EA7002800D74012552F552E4355195
:1015AD00F551809DAB50AA51A952227B007A00794A
:0215BD0000220A
:10134D00FAE6FB0808E6F925F0F618E6CA3AF622A1
:10135D00D083D082F8E4937012740193700DA3A31F
:10136D0093F8740193F5828883E473740293686033
:06137D00EFA3A3A380DF33
:1018EA00EFB40A07740D1218F5740A309811A89902
:1018FA00B8130CC2983098FDA899C298B811F6305E
:07190A0099FDC299F5992235
:00000001FF
